{
  "contractName": "ColdChain",
  "abi": [
    {
      "anonymous": false,
      "inputs": [
        {
          "indexed": false,
          "internalType": "address",
          "name": "entityId",
          "type": "address"
        },
        {
          "indexed": false,
          "internalType": "string",
          "name": "entityMode",
          "type": "string"
        }
      ],
      "name": "AddEntity",
      "type": "event"
    },
    {
      "anonymous": false,
      "inputs": [
        {
          "indexed": false,
          "internalType": "uint256",
          "name": "vaccineBatchId",
          "type": "uint256"
        },
        {
          "indexed": true,
          "internalType": "address",
          "name": "manufacturer",
          "type": "address"
        }
      ],
      "name": "AddVaccineBatch",
      "type": "event"
    },
    {
      "anonymous": false,
      "inputs": [
        {
          "indexed": true,
          "internalType": "address",
          "name": "issuer",
          "type": "address"
        },
        {
          "indexed": true,
          "internalType": "address",
          "name": "prover",
          "type": "address"
        },
        {
          "indexed": false,
          "internalType": "uint256",
          "name": "certificateId",
          "type": "uint256"
        }
      ],
      "name": "IssueCertificate",
      "type": "event"
    },
    {
      "inputs": [],
      "name": "MAX_CERTIFICATIONS",
      "outputs": [
        {
          "internalType": "uint256",
          "name": "",
          "type": "uint256"
        }
      ],
      "stateMutability": "view",
      "type": "function",
      "constant": true
    },
    {
      "inputs": [
        {
          "internalType": "uint256",
          "name": "",
          "type": "uint256"
        }
      ],
      "name": "VaccineBatchIds",
      "outputs": [
        {
          "internalType": "uint256",
          "name": "",
          "type": "uint256"
        }
      ],
      "stateMutability": "view",
      "type": "function",
      "constant": true
    },
    {
      "inputs": [
        {
          "internalType": "uint256",
          "name": "",
          "type": "uint256"
        }
      ],
      "name": "VaccineBatches",
      "outputs": [
        {
          "internalType": "uint256",
          "name": "id",
          "type": "uint256"
        },
        {
          "internalType": "string",
          "name": "brand",
          "type": "string"
        },
        {
          "internalType": "address",
          "name": "manufacturer",
          "type": "address"
        }
      ],
      "stateMutability": "view",
      "type": "function",
      "constant": true
    },
    {
      "inputs": [
        {
          "internalType": "uint256",
          "name": "",
          "type": "uint256"
        }
      ],
      "name": "certificateIds",
      "outputs": [
        {
          "internalType": "uint256",
          "name": "",
          "type": "uint256"
        }
      ],
      "stateMutability": "view",
      "type": "function",
      "constant": true
    },
    {
      "inputs": [
        {
          "internalType": "uint256",
          "name": "",
          "type": "uint256"
        }
      ],
      "name": "certificates",
      "outputs": [
        {
          "internalType": "uint256",
          "name": "id",
          "type": "uint256"
        },
        {
          "components": [
            {
              "internalType": "address",
              "name": "id",
              "type": "address"
            },
            {
              "internalType": "enum ColdChain.Mode",
              "name": "mode",
              "type": "uint8"
            },
            {
              "internalType": "uint256[]",
              "name": "certificateIds",
              "type": "uint256[]"
            }
          ],
          "internalType": "struct ColdChain.Entity",
          "name": "issuer",
          "type": "tuple"
        },
        {
          "components": [
            {
              "internalType": "address",
              "name": "id",
              "type": "address"
            },
            {
              "internalType": "enum ColdChain.Mode",
              "name": "mode",
              "type": "uint8"
            },
            {
              "internalType": "uint256[]",
              "name": "certificateIds",
              "type": "uint256[]"
            }
          ],
          "internalType": "struct ColdChain.Entity",
          "name": "prover",
          "type": "tuple"
        },
        {
          "internalType": "bytes",
          "name": "signature",
          "type": "bytes"
        },
        {
          "internalType": "enum ColdChain.Status",
          "name": "status",
          "type": "uint8"
        }
      ],
      "stateMutability": "view",
      "type": "function",
      "constant": true
    },
    {
      "inputs": [
        {
          "internalType": "address",
          "name": "",
          "type": "address"
        }
      ],
      "name": "entities",
      "outputs": [
        {
          "internalType": "address",
          "name": "id",
          "type": "address"
        },
        {
          "internalType": "enum ColdChain.Mode",
          "name": "mode",
          "type": "uint8"
        }
      ],
      "stateMutability": "view",
      "type": "function",
      "constant": true
    },
    {
      "inputs": [
        {
          "internalType": "address",
          "name": "_id",
          "type": "address"
        },
        {
          "internalType": "string",
          "name": "_mode",
          "type": "string"
        }
      ],
      "name": "addEntity",
      "outputs": [],
      "stateMutability": "nonpayable",
      "type": "function"
    },
    {
      "inputs": [
        {
          "internalType": "string",
          "name": "brand",
          "type": "string"
        },
        {
          "internalType": "address",
          "name": "manufacturer",
          "type": "address"
        }
      ],
      "name": "addVaccineBatch",
      "outputs": [
        {
          "internalType": "uint256",
          "name": "",
          "type": "uint256"
        }
      ],
      "stateMutability": "nonpayable",
      "type": "function"
    },
    {
      "inputs": [
        {
          "internalType": "address",
          "name": "_issuer",
          "type": "address"
        },
        {
          "internalType": "address",
          "name": "_prover",
          "type": "address"
        },
        {
          "internalType": "string",
          "name": "_status",
          "type": "string"
        },
        {
          "internalType": "uint256",
          "name": "vaccineBatchId",
          "type": "uint256"
        },
        {
          "internalType": "bytes",
          "name": "signature",
          "type": "bytes"
        }
      ],
      "name": "issueCertificate",
      "outputs": [
        {
          "internalType": "uint256",
          "name": "",
          "type": "uint256"
        }
      ],
      "stateMutability": "nonpayable",
      "type": "function"
    },
    {
      "inputs": [
        {
          "internalType": "bytes32",
          "name": "message",
          "type": "bytes32"
        },
        {
          "internalType": "uint256",
          "name": "id",
          "type": "uint256"
        },
        {
          "internalType": "address",
          "name": "issuer",
          "type": "address"
        }
      ],
      "name": "isMatchingSignature",
      "outputs": [
        {
          "internalType": "bool",
          "name": "",
          "type": "bool"
        }
      ],
      "stateMutability": "view",
      "type": "function",
      "constant": true
    }
  ],
  "bytecode": "0x608060405234801561001057600080fd5b50612a6e806100206000396000f3fe608060405234801561001057600080fd5b506004361061009e5760003560e01c8063663b3e2211610066578063663b3e2214610184578063b5bad46d146101b8578063c8674905146101d4578063c8d8184b14610204578063fc79b0a9146102345761009e565b80630f9c774d146100a35780631a109658146100d35780631d8ee48a1461010557806345194c07146101365780634851a01d14610166575b600080fd5b6100bd60048036038101906100b891906117b3565b610264565b6040516100ca91906117ef565b60405180910390f35b6100ed60048036038101906100e891906117b3565b610288565b6040516100fc939291906118e4565b60405180910390f35b61011f600480360381019061011a919061194e565b61035a565b60405161012d9291906119f2565b60405180910390f35b610150600480360381019061014b9190611a51565b6103ab565b60405161015d9190611abf565b60405180910390f35b61016e610733565b60405161017b91906117ef565b60405180910390f35b61019e600480360381019061019991906117b3565b610738565b6040516101af959493929190611ca3565b60405180910390f35b6101d260048036038101906101cd9190611e40565b6109e9565b005b6101ee60048036038101906101e991906117b3565b610ba6565b6040516101fb91906117ef565b60405180910390f35b61021e60048036038101906102199190611f3d565b610bca565b60405161022b91906117ef565b60405180910390f35b61024e60048036038101906102499190611ff0565b611171565b60405161025b91906117ef565b60405180910390f35b6000818154811061027457600080fd5b906000526020600020016000915090505481565b60026020528060005260406000206000915090508060000154908060010180546102b19061207b565b80601f01602080910402602001604051908101604052809291908181526020018280546102dd9061207b565b801561032a5780601f106102ff5761010080835404028352916020019161032a565b820191906000526020600020905b81548152906001019060200180831161030d57829003601f168201915b5050505050908060020160009054906101000a900473ffffffffffffffffffffffffffffffffffffffff16905083565b60046020528060005260406000206000915090508060000160009054906101000a900473ffffffffffffffffffffffffffffffffffffffff16908060000160149054906101000a900460ff16905082565b600080600360008581526020019081526020016000206040518060a001604052908160008201548152602001600182016040518060600160405290816000820160009054906101000a900473ffffffffffffffffffffffffffffffffffffffff1673ffffffffffffffffffffffffffffffffffffffff1673ffffffffffffffffffffffffffffffffffffffff1681526020016000820160149054906101000a900460ff1660028111156104615761046061197b565b5b60028111156104735761047261197b565b5b8152602001600182018054806020026020016040519081016040528092919081815260200182805480156104c657602002820191906000526020600020905b8154815260200190600101908083116104b2575b5050505050815250508152602001600382016040518060600160405290816000820160009054906101000a900473ffffffffffffffffffffffffffffffffffffffff1673ffffffffffffffffffffffffffffffffffffffff1673ffffffffffffffffffffffffffffffffffffffff1681526020016000820160149054906101000a900460ff16600281111561055e5761055d61197b565b5b60028111156105705761056f61197b565b5b8152602001600182018054806020026020016040519081016040528092919081815260200182805480156105c357602002820191906000526020600020905b8154815260200190600101908083116105af575b50505050508152505081526020016005820180546105e09061207b565b80601f016020809104026020016040519081016040528092919081815260200182805461060c9061207b565b80156106595780601f1061062e57610100808354040283529160200191610659565b820191906000526020600020905b81548152906001019060200180831161063c57829003601f168201915b505050505081526020016006820160009054906101000a900460ff1660048111156106875761068661197b565b5b60048111156106995761069861197b565b5b8152505090508273ffffffffffffffffffffffffffffffffffffffff1681602001516000015173ffffffffffffffffffffffffffffffffffffffff16146106df57600080fd5b60006106ef86836060015161132b565b905081602001516000015173ffffffffffffffffffffffffffffffffffffffff168173ffffffffffffffffffffffffffffffffffffffff1614925050509392505050565b600281565b6003602052806000526040600020600091509050806000015490806001016040518060600160405290816000820160009054906101000a900473ffffffffffffffffffffffffffffffffffffffff1673ffffffffffffffffffffffffffffffffffffffff1673ffffffffffffffffffffffffffffffffffffffff1681526020016000820160149054906101000a900460ff1660028111156107dc576107db61197b565b5b60028111156107ee576107ed61197b565b5b81526020016001820180548060200260200160405190810160405280929190818152602001828054801561084157602002820191906000526020600020905b81548152602001906001019080831161082d575b50505050508152505090806003016040518060600160405290816000820160009054906101000a900473ffffffffffffffffffffffffffffffffffffffff1673ffffffffffffffffffffffffffffffffffffffff1673ffffffffffffffffffffffffffffffffffffffff1681526020016000820160149054906101000a900460ff1660028111156108d5576108d461197b565b5b60028111156108e7576108e661197b565b5b81526020016001820180548060200260200160405190810160405280929190818152602001828054801561093a57602002820191906000526020600020905b815481526020019060010190808311610926575b505050505081525050908060050180546109539061207b565b80601f016020809104026020016040519081016040528092919081815260200182805461097f9061207b565b80156109cc5780601f106109a1576101008083540402835291602001916109cc565b820191906000526020600020905b8154815290600101906020018083116109af57829003601f168201915b5050505050908060060160009054906101000a900460ff16905085565b60006109f482611403565b90506000600267ffffffffffffffff811115610a1357610a12611d15565b5b604051908082528060200260200182016040528015610a415781602001602082028036833780820191505090505b509050600060405180606001604052808673ffffffffffffffffffffffffffffffffffffffff168152602001846002811115610a8057610a7f61197b565b5b815260200183815250905080600460008773ffffffffffffffffffffffffffffffffffffffff1673ffffffffffffffffffffffffffffffffffffffff16815260200190815260200160002060008201518160000160006101000a81548173ffffffffffffffffffffffffffffffffffffffff021916908373ffffffffffffffffffffffffffffffffffffffff16021790555060208201518160000160146101000a81548160ff02191690836002811115610b3d57610b3c61197b565b5b02179055506040820151816001019080519060200190610b5e9291906116ff565b509050507ff5a37da00f0e4029ee2682b1919ee55d7e6f9d7492237aad9bd1aea7d53d4874816000015185604051610b979291906120ac565b60405180910390a15050505050565b60018181548110610bb657600080fd5b906000526020600020016000915090505481565b600080600460008873ffffffffffffffffffffffffffffffffffffffff1673ffffffffffffffffffffffffffffffffffffffff1681526020019081526020016000206040518060600160405290816000820160009054906101000a900473ffffffffffffffffffffffffffffffffffffffff1673ffffffffffffffffffffffffffffffffffffffff1673ffffffffffffffffffffffffffffffffffffffff1681526020016000820160149054906101000a900460ff166002811115610c9257610c9161197b565b5b6002811115610ca457610ca361197b565b5b815260200160018201805480602002602001604051908101604052809291908181526020018280548015610cf757602002820191906000526020600020905b815481526020019060010190808311610ce3575b505050505081525050905060006002811115610d1657610d1561197b565b5b81602001516002811115610d2d57610d2c61197b565b5b14610d3757600080fd5b6000600460008873ffffffffffffffffffffffffffffffffffffffff1673ffffffffffffffffffffffffffffffffffffffff1681526020019081526020016000206040518060600160405290816000820160009054906101000a900473ffffffffffffffffffffffffffffffffffffffff1673ffffffffffffffffffffffffffffffffffffffff1673ffffffffffffffffffffffffffffffffffffffff1681526020016000820160149054906101000a900460ff166002811115610dfe57610dfd61197b565b5b6002811115610e1057610e0f61197b565b5b815260200160018201805480602002602001604051908101604052809291908181526020018280548015610e6357602002820191906000526020600020905b815481526020019060010190808311610e4f575b505050505081525050905060016002811115610e8257610e8161197b565b5b81602001516002811115610e9957610e9861197b565b5b14610ea357600080fd5b6000610eae87611526565b905060008080549050905060006040518060a00160405280838152602001868152602001858152602001888152602001846004811115610ef157610ef061197b565b5b815250905060008080549050908060018154018082558091505060019003906000526020600020016000909190919091505580600360006001600080549050610f3a919061210b565b81526020019081526020016000206000820151816000015560208201518160010160008201518160000160006101000a81548173ffffffffffffffffffffffffffffffffffffffff021916908373ffffffffffffffffffffffffffffffffffffffff16021790555060208201518160000160146101000a81548160ff02191690836002811115610fcd57610fcc61197b565b5b02179055506040820151816001019080519060200190610fee9291906116ff565b50505060408201518160030160008201518160000160006101000a81548173ffffffffffffffffffffffffffffffffffffffff021916908373ffffffffffffffffffffffffffffffffffffffff16021790555060208201518160000160146101000a81548160ff0219169083600281111561106c5761106b61197b565b5b0217905550604082015181600101908051906020019061108d9291906116ff565b50505060608201518160050190816110a591906122eb565b5060808201518160060160006101000a81548160ff021916908360048111156110d1576110d061197b565b5b02179055509050508973ffffffffffffffffffffffffffffffffffffffff168b73ffffffffffffffffffffffffffffffffffffffff167fc9e3e855764ebb21ed83dcdf8ed5e1398c752d6446308e092c28a84a77a199bd600160008054905061113a919061210b565b60405161114791906117ef565b60405180910390a36001600080549050611161919061210b565b9550505050505095945050505050565b600080600267ffffffffffffffff81111561118f5761118e611d15565b5b6040519080825280602002602001820160405280156111bd5781602001602082028036833780820191505090505b50905060006001805490509050600060405180608001604052808381526020018781526020018673ffffffffffffffffffffffffffffffffffffffff16815260200184815250905080600260008481526020019081526020016000206000820151816000015560208201518160010190816112389190612418565b5060408201518160020160006101000a81548173ffffffffffffffffffffffffffffffffffffffff021916908373ffffffffffffffffffffffffffffffffffffffff160217905550606082015181600301908051906020019061129c9291906116ff565b509050506001829080600181540180825580915050600190039060005260206000200160009091909190915055806040015173ffffffffffffffffffffffffffffffffffffffff167fe85391abb5e51659c581dd95107048251657ee66755655cc08c9c0ec3a0a9139826000015160405161131791906117ef565b60405180910390a281935050505092915050565b60008060008061133a856116cd565b92509250925060006040518060400160405280601c81526020017f19457468657265756d205369676e6564204d6573736167653a0a33320000000081525090506000818860405160200161138f929190612547565b604051602081830303815290604052805190602001209050600181868686604051600081526020016040526040516113ca949392919061259a565b6020604051602081039080840390855afa1580156113ec573d6000803e3d6000fd5b505050602060405103519550505050505092915050565b60008082604051602001611417919061261b565b60405160208183030381529060405280519060200120905060006040516020016114409061267e565b6040516020818303038152906040528051906020012090506000604051602001611469906126df565b604051602081830303815290604052805190602001209050600060405160200161149290612740565b6040516020818303038152906040528051906020012090508284036114be576000945050505050611521565b8184036114d2576001945050505050611521565b8084036114e6576002945050505050611521565b6040517f08c379a0000000000000000000000000000000000000000000000000000000008152600401611518906127a1565b60405180910390fd5b919050565b6000808260405160200161153a919061261b565b60405160208183030381529060405280519060200120905060006040516020016115639061280d565b604051602081830303815290604052805190602001209050600060405160200161158c9061286e565b60405160208183030381529060405280519060200120905060006040516020016115b5906128cf565b60405160208183030381529060405280519060200120905060006040516020016115de90612930565b604051602081830303815290604052805190602001209050600060405160200161160790612991565b60405160208183030381529060405280519060200120905084860361163557600096505050505050506116c8565b83860361164b57600196505050505050506116c8565b82860361166157600296505050505050506116c8565b81860361167757600396505050505050506116c8565b80860361168d57600496505050505050506116c8565b6040517f08c379a00000000000000000000000000000000000000000000000000000000081526004016116bf90612a18565b60405180910390fd5b919050565b600080600060418451146116e057600080fd5b6020840151915060408401519050606084015160001a92509193909250565b82805482825590600052602060002090810192821561173b579160200282015b8281111561173a57825182559160200191906001019061171f565b5b509050611748919061174c565b5090565b5b8082111561176557600081600090555060010161174d565b5090565b6000604051905090565b600080fd5b600080fd5b6000819050919050565b6117908161177d565b811461179b57600080fd5b50565b6000813590506117ad81611787565b92915050565b6000602082840312156117c9576117c8611773565b5b60006117d78482850161179e565b91505092915050565b6117e98161177d565b82525050565b600060208201905061180460008301846117e0565b92915050565b600081519050919050565b600082825260208201905092915050565b60005b83811015611844578082015181840152602081019050611829565b83811115611853576000848401525b50505050565b6000601f19601f8301169050919050565b60006118758261180a565b61187f8185611815565b935061188f818560208601611826565b61189881611859565b840191505092915050565b600073ffffffffffffffffffffffffffffffffffffffff82169050919050565b60006118ce826118a3565b9050919050565b6118de816118c3565b82525050565b60006060820190506118f960008301866117e0565b818103602083015261190b818561186a565b905061191a60408301846118d5565b949350505050565b61192b816118c3565b811461193657600080fd5b50565b60008135905061194881611922565b92915050565b60006020828403121561196457611963611773565b5b600061197284828501611939565b91505092915050565b7f4e487b7100000000000000000000000000000000000000000000000000000000600052602160045260246000fd5b600381106119bb576119ba61197b565b5b50565b60008190506119cc826119aa565b919050565b60006119dc826119be565b9050919050565b6119ec816119d1565b82525050565b6000604082019050611a0760008301856118d5565b611a1460208301846119e3565b9392505050565b6000819050919050565b611a2e81611a1b565b8114611a3957600080fd5b50565b600081359050611a4b81611a25565b92915050565b600080600060608486031215611a6a57611a69611773565b5b6000611a7886828701611a3c565b9350506020611a898682870161179e565b9250506040611a9a86828701611939565b9150509250925092565b60008115159050919050565b611ab981611aa4565b82525050565b6000602082019050611ad46000830184611ab0565b92915050565b611ae3816118c3565b82525050565b611af2816119d1565b82525050565b600081519050919050565b600082825260208201905092915050565b6000819050602082019050919050565b611b2d8161177d565b82525050565b6000611b3f8383611b24565b60208301905092915050565b6000602082019050919050565b6000611b6382611af8565b611b6d8185611b03565b9350611b7883611b14565b8060005b83811015611ba9578151611b908882611b33565b9750611b9b83611b4b565b925050600181019050611b7c565b5085935050505092915050565b6000606083016000830151611bce6000860182611ada565b506020830151611be16020860182611ae9565b5060408301518482036040860152611bf98282611b58565b9150508091505092915050565b600081519050919050565b600082825260208201905092915050565b6000611c2d82611c06565b611c378185611c11565b9350611c47818560208601611826565b611c5081611859565b840191505092915050565b60058110611c6c57611c6b61197b565b5b50565b6000819050611c7d82611c5b565b919050565b6000611c8d82611c6f565b9050919050565b611c9d81611c82565b82525050565b600060a082019050611cb860008301886117e0565b8181036020830152611cca8187611bb6565b90508181036040830152611cde8186611bb6565b90508181036060830152611cf28185611c22565b9050611d016080830184611c94565b9695505050505050565b600080fd5b600080fd5b7f4e487b7100000000000000000000000000000000000000000000000000000000600052604160045260246000fd5b611d4d82611859565b810181811067ffffffffffffffff82111715611d6c57611d6b611d15565b5b80604052505050565b6000611d7f611769565b9050611d8b8282611d44565b919050565b600067ffffffffffffffff821115611dab57611daa611d15565b5b611db482611859565b9050602081019050919050565b82818337600083830152505050565b6000611de3611dde84611d90565b611d75565b905082815260208101848484011115611dff57611dfe611d10565b5b611e0a848285611dc1565b509392505050565b600082601f830112611e2757611e26611d0b565b5b8135611e37848260208601611dd0565b91505092915050565b60008060408385031215611e5757611e56611773565b5b6000611e6585828601611939565b925050602083013567ffffffffffffffff811115611e8657611e85611778565b5b611e9285828601611e12565b9150509250929050565b600067ffffffffffffffff821115611eb757611eb6611d15565b5b611ec082611859565b9050602081019050919050565b6000611ee0611edb84611e9c565b611d75565b905082815260208101848484011115611efc57611efb611d10565b5b611f07848285611dc1565b509392505050565b600082601f830112611f2457611f23611d0b565b5b8135611f34848260208601611ecd565b91505092915050565b600080600080600060a08688031215611f5957611f58611773565b5b6000611f6788828901611939565b9550506020611f7888828901611939565b945050604086013567ffffffffffffffff811115611f9957611f98611778565b5b611fa588828901611e12565b9350506060611fb68882890161179e565b925050608086013567ffffffffffffffff811115611fd757611fd6611778565b5b611fe388828901611f0f565b9150509295509295909350565b6000806040838503121561200757612006611773565b5b600083013567ffffffffffffffff81111561202557612024611778565b5b61203185828601611e12565b925050602061204285828601611939565b9150509250929050565b7f4e487b7100000000000000000000000000000000000000000000000000000000600052602260045260246000fd5b6000600282049050600182168061209357607f821691505b6020821081036120a6576120a561204c565b5b50919050565b60006040820190506120c160008301856118d5565b81810360208301526120d3818461186a565b90509392505050565b7f4e487b7100000000000000000000000000000000000000000000000000000000600052601160045260246000fd5b60006121168261177d565b91506121218361177d565b925082821015612134576121336120dc565b5b828203905092915050565b60008190508160005260206000209050919050565b60006020601f8301049050919050565b600082821b905092915050565b6000600883026121a17fffffffffffffffffffffffffffffffffffffffffffffffffffffffffffffffff82612164565b6121ab8683612164565b95508019841693508086168417925050509392505050565b6000819050919050565b60006121e86121e36121de8461177d565b6121c3565b61177d565b9050919050565b6000819050919050565b612202836121cd565b61221661220e826121ef565b848454612171565b825550505050565b600090565b61222b61221e565b6122368184846121f9565b505050565b5b8181101561225a5761224f600082612223565b60018101905061223c565b5050565b601f82111561229f576122708161213f565b61227984612154565b81016020851015612288578190505b61229c61229485612154565b83018261223b565b50505b505050565b600082821c905092915050565b60006122c2600019846008026122a4565b1980831691505092915050565b60006122db83836122b1565b9150826002028217905092915050565b6122f482611c06565b67ffffffffffffffff81111561230d5761230c611d15565b5b612317825461207b565b61232282828561225e565b600060209050601f8311600181146123555760008415612343578287015190505b61234d85826122cf565b8655506123b5565b601f1984166123638661213f565b60005b8281101561238b57848901518255600182019150602085019450602081019050612366565b868310156123a857848901516123a4601f8916826122b1565b8355505b6001600288020188555050505b505050505050565b60008190508160005260206000209050919050565b601f821115612413576123e4816123bd565b6123ed84612154565b810160208510156123fc578190505b61241061240885612154565b83018261223b565b50505b505050565b6124218261180a565b67ffffffffffffffff81111561243a57612439611d15565b5b612444825461207b565b61244f8282856123d2565b600060209050601f8311600181146124825760008415612470578287015190505b61247a85826122cf565b8655506124e2565b601f198416612490866123bd565b60005b828110156124b857848901518255600182019150602085019450602081019050612493565b868310156124d557848901516124d1601f8916826122b1565b8355505b6001600288020188555050505b505050505050565b600081905092915050565b600061250082611c06565b61250a81856124ea565b935061251a818560208601611826565b80840191505092915050565b6000819050919050565b61254161253c82611a1b565b612526565b82525050565b600061255382856124f5565b915061255f8284612530565b6020820191508190509392505050565b61257881611a1b565b82525050565b600060ff82169050919050565b6125948161257e565b82525050565b60006080820190506125af600083018761256f565b6125bc602083018661258b565b6125c9604083018561256f565b6125d6606083018461256f565b95945050505050565b600081905092915050565b60006125f58261180a565b6125ff81856125df565b935061260f818560208601611826565b80840191505092915050565b600061262782846125ea565b915081905092915050565b7f4953535545520000000000000000000000000000000000000000000000000000600082015250565b60006126686006836125df565b915061267382612632565b600682019050919050565b60006126898261265b565b9150819050919050565b7f50524f5645520000000000000000000000000000000000000000000000000000600082015250565b60006126c96006836125df565b91506126d482612693565b600682019050919050565b60006126ea826126bc565b9150819050919050565b7f5645524946494552000000000000000000000000000000000000000000000000600082015250565b600061272a6008836125df565b9150612735826126f4565b600882019050919050565b600061274b8261271d565b9150819050919050565b7f726563696576656420696e76616c696420656e74697479206d6f646500000000600082015250565b600061278b601c83611815565b915061279682612755565b602082019050919050565b600060208201905081810360008301526127ba8161277e565b9050919050565b7f4d414e5546414354555245440000000000000000000000000000000000000000600082015250565b60006127f7600c836125df565b9150612802826127c1565b600c82019050919050565b6000612818826127ea565b9150819050919050565b7f44454c49564552494e475f494e5445524e4154494f4e414c0000000000000000600082015250565b60006128586018836125df565b915061286382612822565b601882019050919050565b60006128798261284b565b9150819050919050565b7f53544f5245440000000000000000000000000000000000000000000000000000600082015250565b60006128b96006836125df565b91506128c482612883565b600682019050919050565b60006128da826128ac565b9150819050919050565b7f44454c49564552494e475f4c4f43414c00000000000000000000000000000000600082015250565b600061291a6010836125df565b9150612925826128e4565b601082019050919050565b600061293b8261290d565b9150819050919050565b7f44454c4956455245440000000000000000000000000000000000000000000000600082015250565b600061297b6009836125df565b915061298682612945565b600982019050919050565b600061299c8261296e565b9150819050919050565b7f726563656976656420696e76616c69642063657274696669636174696f6e207360008201527f7461747573000000000000000000000000000000000000000000000000000000602082015250565b6000612a02602583611815565b9150612a0d826129a6565b604082019050919050565b60006020820190508181036000830152612a31816129f5565b905091905056fea264697066735822122083877bbd1e3cdd53245f6be106ff77290c78d09628a0df9ed7f504caf730ed6e64736f6c634300080f0033",
  "immutableReferences": {},
  "source": "//SPDX-License-Identifier: MIT\npragma solidity >=0.7.0 <0.9.0;\n\nlibrary CryptoSuite {\n    function splitSignature(bytes memory sig)\n        internal\n        pure\n        returns (\n            uint8 v,\n            bytes32 r,\n            bytes32 s\n        )\n    {\n        require(sig.length == 65); //consition for a valid signature\n\n        assembly {\n            //accessing virtual machine to chnage low level changes\n\n            //get first 32 bytes\n            r := mload(add(sig, 32))\n\n            //next 32\n            s := mload(add(sig, 64))\n\n            //last 32\n            v := byte(0, mload(add(sig, 96)))\n        }\n\n        return (v, r, s);\n    }\n\n    //calling the splitSignature function\n    //function extracts the signer of the message\n    function recoverSigner(bytes32 message, bytes memory sig)\n        internal\n        pure\n        returns (address)\n    {\n        (uint8 v, bytes32 r, bytes32 s) = splitSignature(sig);\n        bytes memory prefix = \"\\x19Ethereum Signed Message:\\n32\";\n        bytes32 prefixedHash = keccak256(abi.encodePacked(prefix, message));\n\n        return ecrecover(prefixedHash, v, r, s);\n        //will return the actual address that signed the message\n    }\n}\n\ncontract ColdChain {\n    enum Mode {\n        ISSUER,\n        PROVER,\n        VERIFIER\n    } //roles\n    struct Entity {\n        address id;\n        Mode mode;\n        uint[] certificateIds; //keep tabs on all certificates that this entity has interacted with\n    }\n\n    enum Status {\n        MANUFACTURED,\n        DELIVERING_INTERNATIONAL,\n        STORED,\n        DELIVERING_LOCAL,\n        DELIVERED\n    } //STAUS OF CERTIFICATE\n\n    struct Certificate {\n        uint id;\n        Entity issuer;\n        Entity prover;\n        bytes signature;\n        Status status;\n    }\n\n    struct VaccineBatch {\n        uint id;\n        string brand;\n        address manufacturer;\n        uint[] certificateIds;\n    }\n\n    uint public constant MAX_CERTIFICATIONS = 2;\n\n    uint[] public certificateIds;\n    uint[] public VaccineBatchIds;\n\n    mapping(uint => VaccineBatch) public VaccineBatches;\n    mapping(uint => Certificate) public certificates;\n    mapping(address => Entity) public entities;\n\n    //event listening for events in the blockchain\n    event AddEntity(address entityId, string entityMode);\n    event AddVaccineBatch(uint vaccineBatchId, address indexed manufacturer);\n    event IssueCertificate(\n        address indexed issuer,\n        address indexed prover,\n        uint certificateId\n    );\n\n    //logic\n    function addEntity(address _id, string memory _mode) public {\n        Mode mode = unmarshalMode(_mode);\n        uint[] memory _certificateIds = new uint[](MAX_CERTIFICATIONS);\n        Entity memory entity = Entity(_id, mode, _certificateIds);\n        entities[_id] = entity;\n        emit AddEntity(entity.id, _mode);\n    }\n\n    function unmarshalMode(string memory _mode)\n        private\n        pure\n        returns (Mode mode)\n    {\n        bytes32 encodedMode = keccak256(abi.encodePacked(_mode));\n        bytes32 encodedMode0 = keccak256(abi.encodePacked(\"ISSUER\"));\n        bytes32 encodedMode1 = keccak256(abi.encodePacked(\"PROVER\"));\n        bytes32 encodedMode2 = keccak256(abi.encodePacked(\"VERIFIER\"));\n        if (encodedMode == encodedMode0) {\n            return Mode.ISSUER;\n        } else if (encodedMode == encodedMode1) {\n            return Mode.PROVER;\n        } else if (encodedMode == encodedMode2) {\n            return Mode.VERIFIER;\n        }\n        revert(\"recieved invalid entity mode\");\n    }\n\n    function addVaccineBatch(string memory brand, address manufacturer)\n        public\n        returns (uint)\n    {\n        uint[] memory _certificateIds = new uint[](MAX_CERTIFICATIONS);\n        uint id = VaccineBatchIds.length;\n        VaccineBatch memory batch = VaccineBatch(\n            id,\n            brand,\n            manufacturer,\n            _certificateIds\n        );\n\n        VaccineBatches[id] = batch;\n        VaccineBatchIds.push(id);\n        emit AddVaccineBatch(batch.id, batch.manufacturer);\n        return id;\n    }\n\n    function issueCertificate(\n        address _issuer,\n        address _prover,\n        string memory _status,\n        uint vaccineBatchId,\n        bytes memory signature\n    ) public returns (uint) {\n        Entity memory issuer = entities[_issuer];\n        require(issuer.mode == Mode.ISSUER);\n\n        Entity memory prover = entities[_prover];\n        require(prover.mode == Mode.PROVER);\n\n        Status status = unmarshalStatus(_status);\n\n        uint id = certificateIds.length;\n        Certificate memory certificate = Certificate(\n            id,\n            issuer,\n            prover,\n            signature,\n            status\n        );\n\n        certificateIds.push(certificateIds.length);\n        certificates[certificateIds.length - 1] = certificate;\n\n        emit IssueCertificate(_issuer, _prover, certificateIds.length - 1);\n\n        return certificateIds.length - 1;\n    }\n\n    function unmarshalStatus(string memory _status)\n        private\n        pure\n        returns (Status status)\n    {\n        bytes32 encodedStatus = keccak256(abi.encodePacked(_status));\n        bytes32 encodedStatus0 = keccak256(abi.encodePacked(\"MANUFACTURED\"));\n        bytes32 encodedStatus1 = keccak256(\n            abi.encodePacked(\"DELIVERING_INTERNATIONAL\")\n        );\n        bytes32 encodedStatus2 = keccak256(abi.encodePacked(\"STORED\"));\n        bytes32 encodedStatus3 = keccak256(\n            abi.encodePacked(\"DELIVERING_LOCAL\")\n        );\n        bytes32 encodedStatus4 = keccak256(abi.encodePacked(\"DELIVERED\"));\n        if (encodedStatus == encodedStatus0) {\n            return Status.MANUFACTURED;\n        } else if (encodedStatus == encodedStatus1) {\n            return Status.DELIVERING_INTERNATIONAL;\n        } else if (encodedStatus == encodedStatus2) {\n            return Status.STORED;\n        } else if (encodedStatus == encodedStatus3) {\n            return Status.DELIVERING_LOCAL;\n        } else if (encodedStatus == encodedStatus4) {\n            return Status.DELIVERED;\n        }\n        revert(\"received invalid certification status\");\n    }\n\n    function isMatchingSignature(\n        bytes32 message,\n        uint id,\n        address issuer\n    ) public view returns (bool) {\n        Certificate memory cert = certificates[id];\n        require(cert.issuer.id == issuer);\n\n        address recoveredSigner = CryptoSuite.recoverSigner(\n            message,\n            cert.signature\n        );\n\n        return recoveredSigner == cert.issuer.id;\n    }\n}\n",
  "sourcePath": "/home/edhacks/Documents/trial/Blockchain-Covid-Certificates/contracts/ColdChain.sol",
  "compiler": {
    "name": "solc",
    "version": "0.8.15+commit.e14f2714.Emscripten.clang"
  },
  "schemaVersion": "3.4.3",
  "updatedAt": "2022-07-16T12:56:49.741Z",
  "networkType": "ethereum",
  "devdoc": {
    "kind": "dev",
    "methods": {},
    "version": 1
  },
  "userdoc": {
    "kind": "user",
    "methods": {},
    "version": 1
  }
}